:020000040000FA
:1000000048120020B5010000FF030000BF010000FE
:1000100000000000000000000000000000000000E0
:10002000000000000000000000000000C10100000E
:100030000000000000000000C3010000C501000036
:10004000C7010000C7010000C7010000C701000090
:10005000C7010000C7010000C7010000C701000080
:10006000C7010000C7010000C7010000C701000070
:1000700045370000CD370000E9370000F11D0000D2
:10008000C7010000C701000011360000C7010000D1
:10009000152F0000C7010000C7010000C7010000C4
:1000A000C7010000C7010000C7010000C701000030
:1000B000AD2B0000C7010000C7010000F52D0000B6
:1000C00000F002F800F04AF80CA030C808382418F4
:1000D0002D18A246671EAB4654465D46AC4201D180
:1000E00000F03CF87E460F3E0FCCB6460126334268
:1000F00000D0FB1AA246AB4633431847CC5E000043
:10010000EC5E00000023002400250026103A01D3F5
:1001100078C1FBD8520700D330C100D50B607047BF
:1001200010B5662902D105F0BBFD10BD642902D1CE
:1001300000F002F910BD732902D101F068F910BD79
:10014000002010BD1FB500F051F90400002000216F
:1001500005F034FCE0601FBD10B510BD01F070FD6E
:100160001146FFF7EFFF04F00DFB01F088FD03B42B
:10017000FFF7F2FF03BC01F0FFFD000070B505467C
:100180000C46164602E00FCC0FC5103E102EFAD2D8
:10019000082E02D303CC03C5083E042E07D301CC9E
:1001A00001C5361F03E021782970641C6D1C761E82
:1001B000F9D270BD0748804707480047FEE7FEE7D1
:1001C000FEE7FEE7FEE7FEE704480549034A054B64
:1001D0007047000041350000C1000000480A0020BF
:1001E00048120020480A00204343514330B55C18B0
:1001F000010C130C0D4692B25D4380B251432C1991
:10020000054655430A0C09044D1962415843010C37
:1002100000044019514130BD0FB41CB5074B06AA6C
:100220007B4469460090059801F0CBF800206946B0
:1002300000F0CFF81CBC08BC04B01847AF010000A8
:100240000FB41CB50C0007AA009001D00019401E85
:10025000084B7B4469460190069801F0B2F8002CE7
:1002600003D06946002000F0B4F81CBC08BC04B000
:100270001847000087010000F8B50E46044600202C
:1002800020622046E1688847002829D0252802D02E
:100290006268A16820E0E1682046002788470500E1
:1002A0001ED028464138192802D80127FF022035E0
:1002B0003246204627602946FFF732FF002808D043
:1002C000012804D0F61DF608F6000836D9E7361DD9
:1002D000D7E762682846A1689047206A401CCFE7AC
:1002E000206AF8BD70B50C460546012A05D028786D
:1002F000800600D5EA69002302E0012305E05B1CCB
:10030000934202D2E05C0028F9D1A869E618C01A2D
:10031000A861286AC01828622846C046C04604E082
:100320006A682078A968641C9047B442F8D32846CC
:10033000C046C04670BD0000F7B50025752910689D
:10034000009914A611D0C046C046002802DA4042E7
:1003500011A608E0009909688A0701D50FA602E0F6
:10036000490704D50EA6012501E0C046C046009FFE
:100370000024243704E001F04EF830313955641C74
:100380000028F8D12B4632462146009800F0AFFDF8
:10039000FEBD0000000000002D0000002B0000004A
:1003A0002000000030B505460B462A461C78107820
:1003B000521C5B1C002801D0A042F7D0002C03D0B7
:1003C000002802D06D1CEFE7284630BD704770470B
:1003D00070470A681070521C0A6070470CC90839CF
:1003E0009A4202D2531C0B6010707047004870474D
:1003F000040A002000487047E40900207047704755
:10040000FFFFFFFFFFFFFFFFFFFFFFFFFEFBFFFF01
:10041000034670B502460B439B070FD10E4CE60115
:1004200000E008C208C91D1B9D433542F9D0D9B26E
:100430001170521C00290DD01B0AF8E70B78491CDB
:100440001370521C002B05D00B78491C1370521CE2
:10045000002BF3D170BD000001010101F8B5042AA1
:100460002CD3830712D00B78491C0370401C521EFA
:1004700083070BD00B78491C0370401C521E830766
:1004800004D00B78491C0370401C521E8B079B0F35
:1004900005D0C91ADF002023DE1B08C90AE0FFF7D8
:1004A0006DFEF8BD1D4608C9FD401C46B4402C43F6
:1004B00010C0121F042AF5D2F308C91A521EF0D434
:1004C0000B78491C0370401C521EEAD40B78491C5F
:1004D0000370401C012AE4D409780170F8BD01E0E2
:1004E00004C0091F0429FBD28B0701D50280801CA0
:1004F000C90700D00270704700290BD0C30702D093
:100500000270401C491E022904D3830702D50280D1
:10051000801C891EE3E70022EEE70022DFE70022CD
:1005200003098B422CD3030A8B4211D300239C4630
:100530004EE003460B433CD4002243088B4231D3A8
:1005400003098B421CD3030A8B4201D394463FE03C
:10055000C3098B4201D3CB01C01A524183098B429C
:1005600001D38B01C01A524143098B4201D34B0185
:10057000C01A524103098B4201D30B01C01A5241E8
:10058000C3088B4201D3CB00C01A524183088B426F
:1005900001D38B00C01A524143088B4201D34B0058
:1005A000C01A5241411A00D20146524110467047CA
:1005B0005DE0CA0F00D04942031000D340425340CF
:1005C00000229C4603098B422DD3030A8B4212D38F
:1005D000FC22890112BA030A8B420CD389019211C1
:1005E0008B4208D3890192118B4204D389013AD0FE
:1005F000921100E08909C3098B4201D3CB01C01AD3
:10060000524183098B4201D38B01C01A52414309E5
:100610008B4201D34B01C01A524103098B4201D3D3
:100620000B01C01A5241C3088B4201D3CB00C01A40
:10063000524183088B4201D38B00C01A5241D9D258
:1006400043088B4201D34B00C01A5241411A00D2D9
:100650000146634652415B10104601D34042002BD5
:1006600000D54942704763465B1000D3404201B554
:100670000020C046C04602BD0246C80FC0078143E5
:100680004B0030B54B405B009B0D20D01923DB069F
:10069000C91801231B05994220DB0324A407042564
:1006A0001346AB400BD3002B04D1EB0613409B0049
:1006B000E34204D401246407002312195941FF23A3
:1006C0001B0599420BD2C9000143500F09E0CB0230
:1006D00004D501430803024305D0054830BDFF217E
:1006E000C905084330BD084607210905884330BDC8
:1006F0000000C07FF0B50C46871A9C410D46861A53
:100700009D4103D2C01BA141D21963410D0D1F0DA4
:10071000C94EEC1BAE435CD07F057F0D0026002F39
:1007200051D02D05AC46A943DD020123ED0A1B057E
:100730001D4320231B1B24D41746E7403818714162
:100740002F46E740CC199D402818314661410C0DD9
:1007500027D161449A4013D50023401C59415200CF
:100760000ED14008400001224B005205D34207D36E
:1007700005204007C14201D5B04900E0B0493046EC
:10078000F0BD6B00002A00D001229A181F23203CE4
:100790001B1B01D5002302E0E540281871410C0D18
:1007A000D7D0012424050919C407CD0740084908FA
:1007B000E40F28436144002CD5D00024401C614143
:1007C0009A40D0D1CDE76A05520DD9D1C90FC907DA
:1007D000D5E79C4D4E00002801D0012400E0002404
:1007E00034195F00002A01D0012600E00026BE195E
:1007F000954FAC420CD8AE420AD8B44206D001257F
:100800006D05EC42BCD010461946F0BD9942FCD0B3
:1008100000203946F0BDF0B51FB40C460F46811AD2
:100820009F412546861A9D4106D20125ED076F405E
:10083000401ABC4152187B41210D1E0D8D1BAC4648
:100840007D4D8D437ED075056D0D7CD00D05AE467A
:10085000AC431B031B0B794D52429D41202366463E
:100860009B1B14D31746F74038180026009074419C
:1008700060462F460741E41900989D4028186641BC
:1008800016D4714671189A4025D5012320E093189B
:100890002A466A415200002B00D0521C1E23203EE3
:1008A0009B1B002B61DD3541EE1728186641E8D50A
:1008B000001876415B1C9A4000D3401C4B05F3188E
:1008C0001524E34010D3002B52D071467118D30F7A
:1008D000C01802D3491C05B0F0BD0123DB079A42C2
:1008E000F9D140084000F6E701225205B21801D1C3
:1008F000002853D00123CC0ADB029943891E002A29
:1009000008D1020C03D0020C0004103902E00246A8
:10091000002020390023550B05D112020823550B66
:1009200001D152010D23550C01D112011B1DD50C13
:1009300001D192009B1C150D01D152005B1C20259A
:10094000EE1A01E02CE022E00546F5401543984000
:10095000CA1AE10769181305C918002ABBDA03206F
:1009600040070818C10FC9070FE071466118B2E7C8
:10097000F10740080843711071444A000CD001236C
:100980005B059A42A7D2C90FC9070020A3E7490512
:10099000490D26D1002001E00028F4D100219AE77A
:1009A000284D6600002801D0012100E000217118C7
:1009B0005F00002A01D0012600E00026BE19224F68
:1009C000A94210D8AE420ED8B14208D001256D051B
:1009D000E94206D01946A802414010467BE79C42F6
:1009E00001D0214677E70020394674E710B50C4660
:1009F0005C4005D50124E4076340FFF70CFF10BD00
:100A0000FFF778FE10BD30B40C465C4004D50124DD
:100A1000E407634030BC6DE630BCFCE670B50124F1
:100A2000E40761400D465D4002D4FFF763FE70BDF0
:100A30006340FFF7F0FE70BDFF0700000000F0FF0D
:100A40000000F07F0000E0FF0000F87F0346CA02CC
:100A5000400D10B510430A1504D00124E4072043CB
:100A6000002A05DB0A4CA21A04D4D040FF2A00DD7C
:100A7000002010BD4A00002B01D0012000E0002022
:100A8000101801225205D042F2D8C817C04310BD39
:100A90001E040000F0B58B4C0F09254689B0BD43FC
:100AA0007BD01D092646AE43FAD00E465E40274055
:100AB000F60F3E43254071D024012142FBD0FF2494
:100AC000AD19A4042D1B039501252D05DB02DB0ABE
:100AD000C9022B43C90A29431E010901040F130F40
:100AE000050121431701880B820391432D098C4690
:100AF000A90B1E438A039543B30B9A0396433F0900
:100B0000BA0B9403A74302962E467E430497B6463B
:100B10004E19D7190C460196544305977E43371B4F
:100B20007646BF1B3601B646BE0B36190096764692
:100B3000BC043719009C01D3641C00946400002F8E
:100B400001D001263443029E049F754366467E43CE
:100B50000496760034196E0034190094029C019EAC
:100B60001C196643751BAE46069465464519059CDF
:100B700005956C43594375460891691A0191049E85
:100B800001465143A41B0491611A009C0791E106A0
:100B900005D061090122114302E072E06EE06109B3
:100BA000089D00272C0A2D066918049D7C412A0AFD
:100BB0002D066918019D6241AC0DAD026D185441BE
:100BC000079A910D920255196141029A6446584361
:100BD0005443069B059A5A43121A131B9A0E9B0103
:100BE0005B187A41010B0005C3185141220A200607
:100BF00044195A419A4200D2491C012040028142C4
:100C000003D315230226F64302E014230326F643FA
:100C10002020C51AA9401746AF40DA400A432046B3
:100C20000399D8400914731819055118039A3843C9
:100C3000D2075140AC4009D00122944006D3002293
:100C4000401C5141002C01D1400840001E4A9342F3
:100C500012D3012203989206904207DB0520400739
:100C600009181A480143C012414004E0032040071C
:100C70000818C10FC907002009B0F0BD0020F10716
:100C8000FAE705180C464C4111486D42A04115D3B6
:100C900094181A465A410E48644290410ED30120DE
:100CA0004A004005824209D35A00824206D3594085
:100CB000C90F084AC90700201143DDE70020064993
:100CC000DAE700000000FF07FE070000FFFFFF7FDC
:100CD0000000E0FF0000F07F0000F87F0121C9055F
:100CE0000123411842001B06D3185B0E0AD0C11025
:100CF0000722D206891840075242D14201D552003C
:100D000089187047090208D50146002A03D0C10F8F
:100D1000C9070020704710467047420202D00020E9
:100D200002497047072109050143F4E70000F87FF5
:100D3000F0B5FF252D04C609C209FF2704462E4041
:100D40000137CB093E4348402A402B400746002A42
:100D50006BD0002B69D0AA4267D0AB4265D0002887
:100D600000DA32460125ED0529432C430902200211
:100D7000090AD21A4B0C7F24E31A434C000A7C4424
:100D8000E35C7D242404121914145B00A218884229
:100D900001D3521C00E0400049420C465C43241140
:100DA0005C43DB016415E318040A5C43C502200DB3
:100DB0000C4644436419250A5D432303EC0C0D469D
:100DC000654300030019EB184C42A34201D35B18A2
:100DD000401CD4052018002B07D05B00C91804D391
:100DE000401C002901D1400840003F2189048A426B
:100DF00009D3002A08DC1106090F04D00321490792
:100E00004018C00FC007F0BD01224100120689182A
:100E10007F2252069142F6D205214907C84201D5E8
:100E20009010F0BDFF20C005F0BD002F00DA324663
:100E30001648AA4207D2AB4205D21902090E17D0B2
:100E4000F80FC007F0BDFF2563002D06AB42F9D8AF
:100E50004900A942F6D8AB4201D1A942F2D0A94239
:100E600001D1002101E061004908D0050843F0BD2F
:100E70001102090EFBD0FF200243D005F0BD0A4647
:100E80000146104654E70000725100000000C07F88
:100E90001F22030C02D10F2200041CD0030E01D12B
:100EA0000002083A030F01D10001121F830F01D184
:100EB0008000921E002801DB4000521ED20551180E
:100EC000021251181922904004D3491C002801D164
:100ED0004908490008467047C10FC90700D0404281
:100EE000012292071143D3E701218907D0E7FFB51B
:100EF00004460D4681B0243000902168880604D550
:100F00001022E0699143216000E00120A84201DD48
:100F1000471B00E000270498A1697A191018081AE5
:100F2000A0612078C00602D42046C046C0460026F4
:100F300008E003986268A168805D9047206A401CC1
:100F4000761C206204988642F3DB2078C0060AD51E
:100F50002046C046C04606E06268A168302090473F
:100F6000206A401C206238467F1E0028F4DC07E01F
:100F700000986268A168405D9047206A401C20622A
:100F800028466D1E0028F3DC2046C046C046207867
:100F9000000602D5022005B0F0BD0120FBE70000ED
:100FA0007047FFB50C461E468FB003CA08900991E2
:100FB0004F007D0D00D16D1E002108460020C04667
:100FC0000321099A89050840002A03DA8200801863
:100FD00040080840800D01280A9002DD0020C0432F
:100FE0000A90089807430DD0F048F1492818484363
:100FF0000714189800281DD07542291E1DDD0A9877
:1010000042421BE01898012802D00020302104E061
:101010000020F24305E02154401CB042FBDB304687
:101020000022189B002121540F998B600A604860B0
:1010300013B0F0BDBD1B6D1CDFE70A9A002900DA72
:1010400069420BA800F0B0FA0BAB07CB03AB07C3A8
:101050000899099800F014FB6B4607C30146D54870
:101060000918002D00910BDDD24903980A9A4942D4
:101070004018002303A90390684600F071FD08E0C2
:1010800003990A9A0023081803A90390684600F000
:1010900011FD6B4607C30004000C03D00020C043C1
:1010A000410800E01046189A002A03D0002200925E
:1010B00015461EE0751E05D400F0F4F93032625575
:1010C0006D1EF9D501220843079602D000227F1C2D
:1010D00004E02078302801D100227F1E002A0697E4
:1010E00087D01EE0112D07DA00F0DCF930326255AE
:1010F0006D1C02460A43F5D1084303D0009800282E
:1011000019D00EE00021681E05E0235C625C635488
:101110002254401E491C8142F7DBA81B401E079544
:101120000690079A18990020A0540F98079B069ADA
:1011300081600CC07CE711260020189059E7D21D71
:10114000F0B50D460446D10893B0C90003C90C9010
:101150000D9102F0BDFE02460D98C00F01D02D206A
:1011600007E02068810701D52B2002E04007C00F6F
:101170004001032A0F9001D0072A05DB03462946C8
:10118000204600F0CDF90EE12078800601D5E76910
:1011900000E006272846652D04D0662814D0672D68
:1011A00069D12DE00020112F009001DB112300E018
:1011B0007B1C0CAA03A910A8FFF7F3FE11990026C7
:1011C00010987D1C0E9142E001203B460CAAC007FE
:1011D0000B900120009003A910A8FFF7E2FE119DDB
:1011E00012981099002600280E9501D1781C0D1830
:1011F000781B02D446427D1C761EE81B00903AE024
:10120000012F00DA01270020112F009001DD1123AA
:1012100000E03B460CAA03A910A8FFF7C2FE1199F3
:101220003D46109800260E91217809070BD40E999F
:10123000A94200DA0D4603A9012D04DD4A19203A1E
:10124000D27F302A06D0B84201DA011D04DA01212A
:1012500000910FE06D1EEFE7002802DC86192D1AC1
:1012600003E0411CA94200DD0D46801B401C00909C
:101270000120C0070B902078000705D40098A842F1
:1012800002DB0020C043009069460020C8720B9822
:10129000012102AF0337C907884225D002201090F0
:1012A0002B2011900B9800280BDA40420B902D2038
:1012B000119006E00B9800F0AEF830317F1E0B90D5
:1012C00039701099481E00291090F3DC0B98002803
:1012D000F0D111987F1E38702088000501D5452077
:1012E00000E065207F1E387001A8C01BC01D0B9058
:1012F0000F98002800D0012041190098C017091844
:101300000B980818A169081A401EA0612078C00631
:1013100002D42046C046C0460F98002805D0626817
:10132000A1689047206A401C20622078C00625D51D
:101330002046C046C04621E0002E07DB0E98B04292
:1013400004DD03A86268805DA16802E06268A168AC
:1013500030209047206A761C401C20620098401E76
:10136000002800900AD1FFF741F8C0686268016860
:10137000405CA1689047206A401C206228466D1E90
:101380000028D9DC07E062683878A1687F1C9047A4
:10139000206A401C20620B99481E00290B90F2DC49
:1013A0002046C046C046032042E6000001FCFFFF85
:1013B000104D0000E1DFFFFF01694A1C026108785F
:1013C000704700B58FB00291002105910549019346
:1013D00079440391114604906846FEF74DFF0FB023
:1013E00000BD0000E5FFFFFF10B54369002B02D0F0
:1013F000C046C04601E0FEF775FF012010BD12781F
:10140000014624310A7000224A700122ECE711687B
:101410000022D243E8E701468008081A02091018A2
:10142000020A1018020C1018C0088200121852008C
:10143000891A01E0401C0A390A29FBD270470000D2
:1014400010B5FF231B0644009C421DD84C009C4253
:101450001AD80346124A0B4307D4401A02D3EFF3BB
:10146000008010BDEFF3008010BD081A06D2EFF324
:10147000008001219043C907084302E0EFF3008098
:10148000904380F3008810BD0D231B041A4204D042
:101490001146002000F0B4FB10BD00F0C9FB10BDE8
:1014A000000000900B4670B502468907800808438B
:1014B00019469D08141AA94125090807054308097A
:1014C0002C194841250A01060D43010A2C194141F6
:1014D000200C0D0428430D0C00194D41002140192A
:1014E0004D41C00869070843E908840F8D00254372
:1014F000840024184D4124196D41121BAB4107E0B3
:101500000925ED432C11521963410024401C61410F
:101510001C460A250026551BB441F1D270BD0000BF
:10152000F8B51F46044601230068DB020326014686
:101530001840072A05DB002801D017A506E017A5EB
:1015400004E0002801D016A500E016A51020814374
:101550002160A069C01E002FA06101D0401EA061C3
:101560002046C046C046002F09D038466268A168B0
:101570009047206A401C2062C01C206206E0206A5E
:10158000FAE762682878A1686D1C9047761EF8D249
:101590002046C046C046F8BD4E414E006E616E000A
:1015A000494E4600696E6600F7B516468AB0334864
:1015B00078446C4603467C33C06F5A689B680DC400
:1015C0002E487844763003AC0DC80DC43720C001D6
:1015D000081837211B30FEF7ACFF05460C46803D4E
:1015E0001B3C02D56442012000E000200027099046
:1015F00010E0E0070CD00C202049784379443246B3
:101600004C3941186846012300F054FA6B4607C371
:1016100064107F1C002CECD1184F7F442E3F16E045
:10162000E80712D02001C0190EC80691089307924E
:101630000068F04201D1981908903246012306A9AA
:1016400003A800F037FA03AB07C36D10641C002D2C
:10165000E6D10998002806D032466946012303A83E
:1016600000F07EFA05E001233246694603A800F047
:1016700021FA0A9B07C30DB0F0BD000080490000AD
:10168000034640000A4610B5400D0BD00121C907A2
:101690000F24A40200191C0364082143540D2143A4
:1016A000D20207E000210120F2E7D40F49002143D4
:1016B0005200401E0029F8DADB0FDB07184310BD8B
:1016C000FFB50D46144685B04868516802F0DAFB54
:1016D00000910190A868A16802F0D4FB02910390E8
:1016E000A868616802F0CEFB029A12188242029248
:1016F00001D2012000E00020019A0B18D218002826
:10170000019202D08A4202D903E08A4201D201202A
:1017100000E000200099081800906868A16802F0B5
:10172000B1FB029A12188242029201D2012000E01B
:101730000020019A0B18D2180028019202D08A4288
:1017400002D903E08A4201D2012000E00020009982
:10175000081800902868216840004900400849089E
:101760004018FA49471814E001994000C90F08438E
:101770000090019802994000C90F08430190029817
:1017800003994000C90F08430290039840007F1E50
:10179000039000980028E7DA0898002801D0EC4E62
:1017A00000E00026B74201DA012000E00020002816
:1017B00004902AD0F71BF806C00E15D0029B2021FA
:1017C000091A039A8B401A430392029A019BC24062
:1017D0008B401A430292019A009BC2408B400099B1
:1017E0001A430192C14000917B110DD06F46032036
:1017F000C11A03D500218200B95003E08A0081009C
:10180000BA587A50401EF3D53746039802990028FB
:1018100000D00120014308980291002808460CD00E
:10182000002800D001200199019A490508430121AF
:10183000D20AC902D202019200E001210E9B0122CC
:10184000D207012B02D0002B03D013E0002807D1D0
:1018500020E0904204D890420CD1019B0B4209D069
:10186000019B5918019105D10099491C009101D1A2
:101870007F1C009200280DD0102108460020C04691
:101880000498002806D00F98002803D008210846A5
:101890000020C04628682168019B009A4840C10F7B
:1018A0000598C90739430EC009B0F0BDFFB587B030
:1018B000099A08980899536892684068896896461A
:1018C0000022039317469446089A12685300099A17
:1018D0005B081268520052089A1A9E4BD4180A9A52
:1018E000002A01D0352200E0402206920022012386
:1018F00015460492DB07059324E0002D05D17546BB
:101900000346039E4D1BB34109D375466646039BB0
:10191000491B049D9841059B7519AC465F41634680
:101920003B4308D0059B049EDD0776082E435B08E9
:101930000496059301E0521E641EC50FED07491879
:101940004041521C069B9A42D7DB002D04D17546BC
:10195000039A6B1A824101D203200CE0039A0B46D2
:101960006B404240134303D0014303D0012002E007
:10197000022000E0002061460191002100970291C1
:101980000A99002905D0614640020143704B01913C
:1019900002E08007002302909C4201DA012000E06F
:1019A000002007003AD01A1BD006C00E15D0029DA9
:1019B0002021019C091AC5408C402543029C8C4083
:1019C00000D001242543019C0295009DC4408D4018
:1019D00000992C430194C140009154111DD06D46D3
:1019E0000221002202290CD10320001B07E000285D
:1019F00004DB8600AE59002E00D00122401C0328D3
:101A0000F5DB081B02D588002A5004E08000285826
:101A100010438A00A850491EE3D51C460A980028A6
:101A200002980CD0002800D001200199019A4905A4
:101A300008430121D20AC902D202019200E0012129
:101A4000109B0122D207012B02D0002B03D013E000
:101A5000002807D11FE0904204D890420CD1019B8E
:101A60000B4209D0019B5918019105D10099491CDD
:101A7000009101D1641C009200280CD0102108466E
:101A80000020C046002F06D01198002803D008215E
:101A900008460020C04608980999019A009B0068F2
:101AA00009684840C10F0798C907214382600AC0EE
:101AB0000BB0F0BD00B585B0019300920A46014617
:101AC000002302A8FFF7FCFD02A807C805B000BD6F
:101AD000FFB50A461F4685B007990193012300917F
:101AE000014602A8FFF7ECFD02990398049ECA0F75
:101AF0004900D20700920F22490892028C1A002155
:101B0000002800DB0C46450013486D08844214D3BE
:101B1000079A002A04DA441E0026104DF64302E01C
:101B200004460D460E46102108460020C046002FF0
:101B300003D0042108460020C0462005E90A0843D6
:101B4000009908436905F20A1143ADE602C0FFFFA0
:101B5000013C0000FF3F0000FF070000FFFFFF7F88
:101B600000B585B0019300920A460146002302A801
:101B7000FFF79CFE02A807C8A8E7FFB50A461F4664
:101B800085B00799019301230091014602A8FFF750
:101B90008DFE02990398049ECA0F4900D207009255
:101BA0000F22490892028C1A0021002800DB0C4603
:101BB000450011486D08844214D3079A002A04DABC
:101BC000441E00260D4DF64302E004460D460E4627
:101BD000102108460020C046002F03D004210846EB
:101BE0000020C0462005E90A08430099084369051A
:101BF000F20A114358E60000FF070000FFFFFF7FD5
:101C0000C80212D54803400F002804D0C803C043BF
:101C1000012188407047EFF3008000010009032193
:101C20000907084380F300887047002070470000D0
:101C300010B5024800F070F810BD00000000C07F31
:101C40007546FEF7D7FBAE46050069465346C00809
:101C5000C000854618B020B5FEF7B6FA60BC002774
:101C60004908B6460026C0C5C0C5C0C5C0C5C0C568
:101C7000C0C5C0C5C0C5403D49008D46704710B5C0
:101C80000446C046C0462046FEF771FA10BD00006B
:101C9000024670B50A4392072AD11E4DEE0104C8D0
:101CA00008C9541B9443344017D0D0B2D9B2401A5B
:101CB0002106014310D190B299B2401A2104014388
:101CC0000AD110021902000A090A401A210201432E
:101CD00002D1100E190E401A70BD9A42DFD010BA10
:101CE00019BA884201D9012070BD0020C04370BDDF
:101CF00002780B78401C491C002A09D09A4207D16F
:101D000002780B78401C491C002A01D09A42EFD07F
:101D1000D01A70BD0101010110B50C461107090F61
:101D2000092904D00A290AD008290CD104E0114657
:101D30000820FFF765FF06E0510606D501E05106D1
:101D400001D50120C007214610BDD10607D50101EC
:101D50000909CC084907000E0006044309E0410FB9
:101D600020024907000A0143200E00061D22D1412E
:101D700001430846E7E7000001491820ABBEFEE733
:101D80002600020070B58C180578401C6B075B0FAD
:101D900001D10378401C2A1106D10278401C03E0CF
:101DA0000678401C0E70491C5B1EF9D12B0705D428
:101DB0000023521E0DD40B70491CFAE70378401C17
:101DC000CB1A921C03E01D780D70491C5B1C521E3F
:101DD000F9D5A142D8D3002070BD000010B50F2066
:101DE00000F0F8FE00200149088010BD58F8FF1FE0
:101DF000F0B591B002F082F86D4908606D4903C9F1
:101E00006D4B00220E930D920F9110901A460D9B70
:101E1000FEF7EAF98A05800A10438A0A64490968CC
:101E2000CB1740185A41634905C1083908688988A9
:101E30008905800A08435E490968081A5C490860F8
:101E4000084600684043C1175C4B0CCB80185941D1
:101E50005A4A03C25A480368416855480068C21785
:101E600018185141564A03C2554903C9554B00221F
:101E70000A9309920B910C901A46099BFEF7B4F94C
:101E8000CA05400A104349124D4A03C24C4903C9CE
:101E9000C823002206930592079108901A46059BD5
:101EA000FEF7A2F94A04C00B1043C913464A03C205
:101EB000454805684468284621462A462346FEF7D9
:101EC00093F9424B0CCB80185941404A03C23C491C
:101ED00003C9CA064009104349113D4A03C23D489F
:101EE00003684068083A06CA59185041394A1160D7
:101EF0005060114603C9FF2300220293019203910F
:101F000004901A46019BFEF76FF90A06000A104377
:101F10000912304A03C22F4903C9CA0640091043B7
:101F200049112B4A03C22A48C0C8304639463246B6
:101F30003B46FEF759F9284B0CCB80185941264AED
:101F400003C226480088401C00B224490880084685
:101F50000021415E01208003814226DD174801688F
:101F600080888204880B10431D4908600021134AB1
:101F7000116051601548016880888204880B104305
:101F8000184908600021114A116051601248016827
:101F900080888204880B10431349086000210E4A90
:101FA0001160516000200D49088011B0F0BD0000A3
:101FB00098F8FF1F08F8FF1FFF03000038F8FF1F05
:101FC00028F8FF1FFF010000A0F8FF1F40F8FF1FC7
:101FD000A8F8FF1F30F8FF1F48F8FF1F58F8FF1F31
:101FE00010F8FF1F14F8FF1F18F8FF1F10B50F207F
:101FF00000F0E6FD10BD0000012804D10121064AD1
:10200000516041045160002804D10121024A9160CD
:10201000490491607047000000F10F4010B501F0D5
:102020007BFF0C488069802108430A498861084683
:102030008069102188430749886108468069042126
:1020400008430449886102F029FE01210F2000F0B5
:10205000D5FD10BD0080044070B502460B46FF253B
:10206000FF2408E01178521C69400748405C60403A
:1020700005460648445C18465E1EF3B20028F1D1BE
:102080002802204370BD0000E45C0000E45D000015
:1020900070B502460B46FF25FF2408E01178521C5C
:1020A00069400748405C604005460648445C184665
:1020B0005E1EF3B20028F1D12802204370BD00005B
:1020C000E45C0000E45D0000F0B58BB004460F4610
:1020D0003846FEF703FE234606A2019100901E211A
:1020E00003A8FEF7ADF803AA04A1002001F05CF8F4
:1020F0000BB0F0BD257325660D0A000025730000A6
:1021000010B502F01BFB10BD10B5012000F06CFBF8
:10211000FF20F53003F0C0F9002000F065FBFF2040
:10212000F53003F0B9F9012000F05EFBFF20F53037
:1021300003F0B2F9002000F057FB10BD10B50120EC
:1021400000F044FBFF20F53003F0A6F9002000F07A
:102150003DFBFF20F53003F09FF9012000F036FB36
:10216000FF20F53003F098F9002000F02FFB10BDA0
:102170000248C17840229143C170704700A00640D8
:102180000248C17840229143C170704700C00640A8
:10219000F0B585B05F48006802F0CCF90546FEF75F
:1021A000A3FE04462046FEF799FD5B4A5B4B039174
:1021B0000290FEF76FFC0546FEF75EFA04465848AB
:1021C0004169204603F080FC06465548C169304607
:1021D00003F07AFC0546524881692846FEF7A8FDBF
:1021E0000446504884645048006802F0A3F905464C
:1021F000FEF77AFE07463846FEF770FD464A474B23
:1022000003910290FEF746FC0546FEF735FA0746B5
:102210004649384603F058FC0190FEF75FFD05463D
:10222000434A444BFEF736FC03910290FEF724FA32
:1022300007463B484169384603F046FC06463848A5
:10224000C169304603F040FC05463548816928469F
:10225000FEF76EFD07463348C7643748006802F052
:1022600069F90546FEF740FE04900498FEF736FD36
:102270000546294A294BFEF70DFC03910290FEF713
:10228000FBF904900498FEF729FD0546284A2B4BDC
:10229000FEF700FC00222A4B01910090FEF7FAFBAA
:1022A00003910290FEF7E8F904902649049803F0A0
:1022B0000BFC03901A484169039803F005FC06469D
:1022C0001748C169304603F0FFFB05461448816991
:1022D0002846FEF72DFD04903F210906049803F0DF
:1022E000F3FB104908650846416D17A0FFF7ECFEA7
:1022F0000C48816C14A0FFF7E7FE0A48C16C17A0D8
:10230000FFF7E2FE0748016D19A0FFF7DDFE05B0FB
:10231000F0BD000010F8FF1FBF1072DEFFC7A93F1D
:10232000B0F9FF1F50FAFF1F14F8FF1F0000A04074
:102330002D431CEBE236FA3F18F8FF1FE2368A3FC6
:10234000000010400000C842506172616D65746504
:10235000722E61646174653A000000005061726120
:102360006D657465722E76646174653A00000000D4
:10237000506172616D657465722E78646174653A3E
:102380000000000010B51DA1002000F00DFF01F0BD
:102390000DFE1E48C0784006400E04280DD11C4892
:1023A000406B012109030843194948630846806BC3
:1023B00001210843164988631FE01448C07840068D
:1023C000400E012819D103F035FA0446072C04D138
:1023D000104802F0FBFB104908600D48406B0121DA
:1023E000090308430A4948630846806B01210843F2
:1023F00007498863012001F0C7FD10BD454E5445D3
:10240000525F564C50530D0A0000000000E0074098
:102410000080044000127A00CCFBFF1F0248C17804
:1024200040221143C170704700A006400248C178A5
:1024300040221143C170704700C0064038B50546C0
:10244000009509200849C8716846807888716846F7
:102450004078487168460078087172B600F006F856
:10246000044662B6204638BD0000024010B5302058
:1024700008490870084809490860064809688847FB
:102480000448007831210840002801D0002010BD08
:102490000120FCE70000024035FCFF1F44FCFF1F49
:1024A000012802D10221044A5160002802D10221F0
:1024B000014A91607047000000F10F4010B5A0483C
:1024C000C069072109028843FF3001309C49C86177
:1024D0009C484069802188439A4948619848C0696E
:1024E0000F21090488430921090440189449C8614F
:1024F0001F2000F06FFB94484068072109028843C1
:10250000FF300130904948608E48403040690121D9
:10251000490408438B4940314861012040048860E8
:10252000894840380068072109028843FF3001309C
:10253000854940390860834840304069012108439B
:10254000804940314861012088607F4840384068B8
:10255000072109028843FF3001307B494039486038
:10256000784840304069022108437649403148614B
:102570000220886074488068072109028843FF3080
:102580000130714988606F484030406901218904F9
:1025900088436C49403148610120800488606A4862
:1025A000C068072109028843FF3001306649C860CE
:1025B0006448403040690121C90408436149403101
:1025C00048610120C0044860604840680721090252
:1025D0008843FF3001305D4948605A48803840697F
:1025E0000221084357498039486102204860574812
:1025F0000068072109028843FF3001305349086011
:10260000504880384069012108434E49803948616B
:10261000012048604A488069072109028843FF3049
:10262000013047498861474840694021884345490E
:102630004861402088604648406807210902884375
:10264000FF300130424948603E48C03840690221AD
:1026500008433C49C0394861022088603C48806892
:10266000072109028843FF30013039498860354825
:10267000C0384069042108433249C0394861042008
:1026800088602F484069072109028843FF300130E4
:102690002B4948612B4840692021884329494861DA
:1026A0002020886026480069072109028843FF30FE
:1026B000013023490861234840691021884321499A
:1026C00048611020886023488068072109028843F8
:1026D000FF3001301F4988601A48403840690421A2
:1026E000084318494039486104208860164800684A
:1026F000072109028843FF3001301349086011485F
:10270000403040690121090408430E4940314861C5
:102710000120000488600C48806B0721090288436F
:10272000FF30013008498863064840304069090697
:1027300008430449403148618805886010BD0000A5
:1027400000C00440C0F00F4040D0044000A004404E
:102750000090044000B0044000200449087004497F
:1027600008600449086004490860704768F8FF1F62
:1027700074F8FF1F70F8FF1F6CF8FF1F11484068C6
:10278000072109028843FF3001300E4948600E4896
:102790004069022108430C494861022088600948C9
:1027A0008068072109028843FF30013005498860AD
:1027B00005484069042108430349486104204860F2
:1027C000704700000090044000F00F40002802D144
:1027D0000121044A5160012802D10121014A91607E
:1027E0007047000040F00F40002802D10121044A48
:1027F0005160012802D10121014A91607047000017
:1028000040F00F4010B59EB0044609A1002000F032
:10281000CBFC224609A16846FDF7FEFC7D23DB00C8
:1028200009A20CA1684600F043F81EB010BD0000DC
:102830004144525F5345540D0A00000041542B415E
:1028400044523D25640000006E6F206368616E672E
:10285000650000004F4B000010B59EB0044609A172
:10286000002000F0A1FC22460AA16846FDF7D4FC36
:10287000FF23F5330AA20DA1684600F019F81EB037
:1028800010BD0000434C4153535F534554200D0A83
:102890000000000041542B434C4153533D2564003C
:1028A0006E6F206368616E67650000004F4B00002B
:1028B000F8B506460C4615461F462B48408CC00B03
:1028C000C00329494884314628A000F0C3FF002CEA
:1028D00003D1002D01D10120F8BD384602F0DCFD06
:1028E00000212148408C4004400C1F4A403A1154BA
:1028F00020A1002000F058FC002C1DD0002D1BD082
:10290000214619484038FDF74DFD002801D001202F
:1029100000E0002000280BD1294613484038FDF77D
:1029200041FD002801D0012000E00020002801D056
:102930000120D1E70020CFE7002C0AD021460A4829
:102940004038FDF72FFD002801D00120C4E700200A
:10295000C2E7294604484038FDF724FD002801D08D
:102960000120B9E70020B7E70800002025730D0A11
:10297000000000005265763A25730D0A0000000041
:1029800010B59EB0044609A1002000F00DFC2246BF
:1029900009A16846FDF740FC7D23DB0009A20CA1DC
:1029A0006846FFF785FF1EB010BD000044525F531C
:1029B00045540D0A0000000041542B44523D25644B
:1029C000000000006E6F206368616E6765000000A4
:1029D0004F4B000000B59FB007A1002000F0E4FBC2
:1029E00008A101A8FDF718FC084B09A20BA101A83A
:1029F000FFF75EFF1FB000BD4A4F494E5F5345547D
:102A0000200D0A0041542B4A4F494E00983A0000CD
:102A10006E6F206368616E67650000005258444F16
:102A20004E45000010B59EB0044609A1002000F0FC
:102A3000BBFB224609A16846FDF7EEFBFF23F533F9
:102A400009A20CA16846FFF733FF1EB010BD0000BD
:102A50004D4F44455F534554200D0A0041542B4DC2
:102A60004F44453D256400006E6F206368616E67CA
:102A7000650000004F4B000010B59EB0044609A150
:102A8000002000F091FB22460AA16846FDF7C4FB36
:102A90007D23DB000AA20DA16846FFF709FF1EB0E7
:102AA00010BD0000504F5745525F534554200D0A4A
:102AB0000000000041542B504F5745523D25640003
:102AC0006E6F206368616E67650000004F4B000009
:102AD00070B59EB005460E4614460848408CC00BA3
:102AE000C00306494884224605A16846FDF794FBC9
:102AF000694606A000F010FF1EB070BD080000205F
:102B000041542B53454E443D25642C002573000051
:102B100070B504460D461646002C03D1002D01D198
:102B2000012070BD304602F0B7FC00211E48408CE9
:102B30004004400C1C4A403A1154002C1CD0002D7B
:102B40001AD021461046FDF72DFC002801D00120A7
:102B500000E0002000280BD1294613484038FDF73B
:102B600021FC002801D0012000E00020002801D035
:102B70000120D6E70020D4E7002C0AD021460A48DD
:102B80004038FDF70FFC002801D00120C9E70020E4
:102B9000C7E7294604484038FDF704FC002801D067
:102BA0000120BEE70020BCE70800002003480068C1
:102BB000802108430149086070470000000004407C
:102BC000C206D20E01219140014A116070470000F7
:102BD00080E100E0C206D20E01219140014A11605D
:102BE0007047000000E100E0C206D20E01219140D2
:102BF000014A11607047000000E100E010B50028B4
:102C000019DA1A4A03071B0F083B9B089B00D2588E
:102C10008307DC0EFF23A3409A438B071B0E840718
:102C2000E40EA3401A43114B0407240F083CA408E8
:102C3000A4001A5118E00E4A03231B02D21883087D
:102C40009B00D2588307DC0EFF23A3409A438B07D7
:102C50001B0E8407E40EA3401A43054B03242402F1
:102C60001B198408A4001A5110BD00001CED00E0DF
:102C700000E100E010B5002819DA1A4A03071B0F1B
:102C8000083B9B089B00D2588307DC0EFF23A34020
:102C90009A438B071B0E8407E40EA3401A43114B83
:102CA0000407240F083CA408A4001A5118E00E4A97
:102CB00003231B02D21883089B00D2588307DC0E23
:102CC000FF23A3409A438B071B0E8407E40EA34007
:102CD0001A43054B032424021B198408A4001A512B
:102CE00010BD00001CED00E000E100E0FEB500209A
:102CF00001900327032000901B48808800121B4985
:102D00000870194800794870009888707800C87079
:102D10000D1D00260CE00199891988B201F068F9AF
:102D20000446201228706D1C2C706D1C701CC6B2DD
:102D3000BE42F0DB0D48C078001DC1B20B48FFF762
:102D4000A7F904462046E117090E09180904090EDF
:102D50002970E117090E091809120902611A697030
:102D60007800801DFEBD0000B0F8FF1F2C0400207D
:102D7000FEB5002001900427032000901B488088A6
:102D800000121B4908701948007948700098887033
:102D90007800C8700D1D00260CE00199891988B2D1
:102DA00001F012FA0446201228706D1C2C706D1C64
:102DB000701CC6B2BE42F0DB0D48C078001DC1B227
:102DC0000B48FFF765F904462046E117090E09187C
:102DD0000904090E2970E117090E091809120902E0
:102DE000611A69707800801DFEBD0000B0F8FF1FF9
:102DF0002C0400200948006A80280DD1074880383B
:102E0000C06901210906084304498039C8610448A2
:102E10000068401C024908607047000080C0044000
:102E200074F8FF1F30B50346002005E044001C5B2A
:102E300045005453441CE0B24C088442F6D830BDDF
:102E400010B5002002F0A4F90520074988800B2066
:102E5000C8800020088188720448088006204880C5
:102E6000084600F0C5F810BD5CFCFF1FE20700003B
:102E700010B502881C4BD21AFF236E335A430A60E6
:102E80000288D3179B0F9B189B10FF3BED3B0C68F0
:102E90001B190B6043885B00144CE35A0A68D21874
:102EA0000A6083880A68D2180A6002789207920F33
:102EB000002A05D14288022A02D80A68521E0A60F6
:102EC0000B4B0A685A43C388E12424016343D31897
:102ED00002893C2462439A18837AD2180A600A68ED
:102EE000521C0A6010BD0000B2070000CA5C00005E
:102EF0008051010038B50446002C00D138BD04488B
:102F0000006800902146684600F012F800BFF5E71F
:102F100000D003400548406904210840002804D03F
:102F200002488068401C01498860704700D0034017
:102F3000F3B583B00C4603980068029028490298C4
:102F4000FDF7EDFA064626490298FDF7E8FA0291E8
:102F5000E12109010298FDF7E2FAE080E12109018F
:102F60000298FDF7DCFA02913C210298FDF7D7FAAE
:102F700020813C210298FDF7D2FAA17219482080E5
:102F8000FF206E30019010E00198361A2088401C16
:102F9000208020788007800F002803D0FF206E302B
:102FA000019002E0FF206F30019001988642EBD83B
:102FB00020788007800F002801D00B4F00E00B4FD6
:102FC000012507E0785DB04201D3658004E0785DBB
:102FD000361A6D1C0C2DF5D900BFA68005B0F0BDCA
:102FE00080510100B2070000B05C0000BD5C000031
:102FF00018B50446002C00D118BD69462046FFF7DD
:1030000037FF084840691021884306494861009805
:10301000086008464069102108430249486100BF22
:10302000EAE7000000D0034070B50546274828496C
:103030000978455426480078401C25490870084600
:103040000078030000F036FF0504050607081400A9
:103050003AE039E038E037E004E001F051FB0028C5
:1030600000D103E001F0ACFA0028F6D000BF2BE05D
:1030700001F078FA0446022C15D1002405E013482B
:10308000005D14490855601CC4B2114800788442A0
:10309000F5DB0F4800781049087000200C490870D3
:1030A00001F01AFE0FE0012C0CD101F029FB04E025
:1030B00001F026FB002800D103E001F081FA00288E
:1030C000F6D000E000BF00BF00BF70BDCC04002000
:1030D00031FCFF1F0C05002033FCFF1FF8B5044630
:1030E0000D46164600BF0E480078002801D100F0BA
:1030F000E9FC00BFEFF310800746012080F3108841
:1031000000BF00BF32462946204600F00BF8009071
:10311000F8B280F3108800BF00BF0098F8BD00002F
:103120002C050020F7B582B007461646039801909B
:10313000182078431B4940180090009840690028E7
:1031400004D0012811D0022826D11EE0009800F0FA
:10315000F1FC0546B54201D2002405E03446324672
:103160000199009800F069FE18E0009800F0E2FC78
:103170000546B54201D2284600E0304604462246C4
:103180000199009800F059FE08E032460199009834
:1031900000F016FE044601E0002400BF00BF2046F8
:1031A00005B0F0BD440500200FB438B5044606A8AC
:1031B00000906A462046059900F008F80546002070
:1031C0000090284638BC08BC04B01847F7B59AB040
:1031D0000D46144602A81590402016900020179026
:1031E0001A9819900020189000BF2E786D1C002EA0
:1031F00000D1E4E0252E79D100270120149000BFF2
:103200002E78232E12D02B2E0CD02D2E02D0302E25
:1032100010D103E0012007436D1C0EE0022007439C
:103220006D1C0AE0042007436D1C06E008200743DC
:103230006D1C02E00020149000BF00BF149800280D
:10324000DED1129000BF2E78302E01DB392E00DD4A
:1032500008E06D1C0A211298484331463039401865
:103260001290F0E700BF002013902E782E2E11D17F
:103270006D1C00BF2E78302E01DB392E00DD08E0FA
:103280006D1C0A2113984843314630394018139079
:10329000F0E700BF2E7800BF6C2E01D0682E02D15F
:1032A0006D1C2E7800E000E0F6E700BF702E63D0C2
:1032B00008DC252E72D0582E38D0632E09D0642E0B
:1032C00071D114E0732E40D0752E1FD0782E6AD1A4
:1032D0002BE02168081D2060086814901498C0B283
:1032E000019015A8019900F049FD5DE05FE02168BB
:1032F000081D2060086814901298019700900A2217
:1033000015A8139B149900F023FC4DE02168081DBB
:103310002060086814901298019700900A2215A85E
:10332000139B149900F09CFC3EE000BF2168081D2F
:10333000206008681490129801970090102215A838
:10334000139B149900F08CFC2EE02168081D20606E
:103350000868019000BF019806780198401C019010
:10336000002E00D106E0314615A800F007FD1898A0
:103370000028F0DA00BF17E02168081D2060086807
:103380001490002008210B4610220091019015A8EE
:10339000149900F065FC07E000E004E0252115A881
:1033A00000F0ECFC00E000BF00BF6D1C03E0314604
:1033B00015A800F0E3FC1898002800DB15E700BF13
:1033C000189800280BDD1798002804D002A9179A36
:1033D0001A98FFF783FE17991898401818901898B4
:1033E0001DB0F0BD70B54F480078C02108400028DE
:1033F00068D14C4840794021084000284ED14948C6
:10340000007804210840002815D1474C4548007831
:1034100038210840C10801208840C5B2294620460D
:10342000FDF77DF804463F484078302108400028E9
:1034300003D0640901E00124E4033A48C078E021A4
:103440000840C106C90E002926D14011030000F032
:1034500031FD0805090D1115191D20230520C00196
:1034600044431AE005200002444316E00F20C00147
:10347000444312E00520400244430EE0B7208000A0
:1034800044430AE0B720C000444306E027484443D1
:1034900003E02748444300E000BF38E021480079BA
:1034A000C006C00E451C29461F48FDF738F80446E3
:1034B0001C484079C006C00E0546183520466843B2
:1034C000044624E017480078C0210840402815D160
:1034D00014484078C007C00F002802D10124E4033B
:1034E00015E01048007A0E2210404208012090405A
:1034F00001461048FDF713F8044608E00948007833
:10350000C0210840802801D1074C00E070BD0A4866
:103510004068000F411C2046FDF701F8074908608C
:1035200000BFF3E70040064000127A009508000053
:10353000710B000000093D004080044020FCFF1F8B
:1035400000202B4908602B48806B49150843294906
:10355000886301200004274940314860264880687C
:1035600026490840244988600846C0682349084025
:103570002149C860892022490870242021494870C7
:103580009A2008700846C078C006C00EC870032094
:1035900008710020487100BF1A4880791021084046
:1035A0000028F9D100BF174880790C21084008286D
:1035B000F9D140201349487100BF124880790C218D
:1035C00008400828F9D100BF0E4880794021084002
:1035D0000028F9D01A200B49087000BF09488079EB
:1035E0000C2108400C28F9D10748084908607047A9
:1035F000008104400080044040900440FFF8FFFE3A
:103600000050064000400640006CDC0220FCFF1F1A
:1036100070B530480068802108432E4908602E4864
:103620000068401C2C4908602C480078012805D10E
:103630002B480068401C2A49086014E0274800789D
:10364000002810D12748006980210840C043C043AA
:10365000002805D024480068401C2349086002E087
:103660000020214908602048006823218901884200
:1036700009D91A480078002805D101201749087097
:1036800000201A490860164800687D210901884217
:103690001ED91248007801281AD114480068FDF795
:1036A00023FC06468B21C905FDF742FB0546872111
:1036B000C90502F009FA04460D4902F089FA0D49DC
:1036C00048650020054908700749086004490860FA
:1036D00070BD00000090034008FCFF1F68F8FF1F4A
:1036E0006CF8FF1FC0F00F4070F8FF1F74F8FF1F49
:1036F0000000484250FAFF1F10B50F48C06B01216F
:10370000490608430C49C863084640680B4908430A
:103710000949486040200A490860002048604B2061
:10372000C000886008460068082108430449086012
:103730001220FFF74FFA10BD008004400000010185
:103740000090034070B51F4C2079202108400028CC
:1037500018D0E0780840002814D001F0C3FE0546D8
:103760001949498C4804400C1749498CC90BC903B5
:10377000421C5204520C1143134A518411464039E1
:103780000D5417E0207940210840002812D0E0783D
:10379000084000280ED000F0A5FE002808D0FEF753
:1037A0003DFE00F063FE0646304601F051FF01E0A9
:1037B000FEF7DEFC03484079402108430149487187
:1037C00070BD000000A006400800002010B5054CA8
:1037D00002E0E07901F058FF20792021084000281C
:1037E000F7D110BD00B0064070B5194C20792021EA
:1037F0000840002809D0E0780840002805D001F0F2
:103800004FFF0646FFF710FC15E0207940210840E5
:10381000002810D0E078084000280CD000F076FE98
:10382000002806D000F040FE0546284601F0B2FF11
:1038300001E0FEF7A5FC0648407940210843044911
:10384000487108460079082108430149087170BD94
:1038500000C006400FB470B5A2B0002527A80190A3
:1038600046E026980078252838D12698401C2690D6
:103870000078642813D0732829D1019810C80190CA
:1038800006E022782846691C8DB221490A54641C3E
:1038900020780028F5D12698401C26901DE001983C
:1038A00040C801900A2202A9304600F0E9FE02ACAD
:1038B00006E022782846691C8DB215490A54641C1A
:1038C00020780028F5D12698401C269005E02698FF
:1038D000401C2690681C85B200BF09E0269802783B
:1038E0002846691C8DB20A490A542698401C269025
:1038F000269800780028B4D106480560016804487D
:1039000001F064FF22B070BC08BC04B0184700008E
:103910002C0000201CFCFF1F0FB4F0B5A3B0002743
:10392000002429A8019049E02898007825283BD157
:103930002898401C28900078642813D073282CD134
:10394000019840C8019006E032782046611C8CB294
:1039500033490A54761C30780028F5D12898401C49
:10396000289020E00198006822900198001D0190A5
:103970000A2202A9229800F083FE02AE06E0327805
:103980002046611C8CB226490A54761C30780028E7
:10399000F5D12898401C289005E02898401C2890D4
:1039A000601C84B200BF09E0289802782046611CA0
:1039B0008CB21B490A542898401C289028980078FB
:1039C0000028B1D1174804601748007C002803D1B3
:1039D000FFF78CF9054602E0FFF7CAF90546002714
:1039E00005E01248C05DE1190D4A50547F1CAF42FA
:1039F000F7D30D2061190A4A50540A216019401C5E
:103A000011546019801C0749086008460168104677
:103A100001F0DCFE23B0F0BC08BC04B01847000085
:103A20002C0000201CFCFF1FB0F9FF1F2C040020FD
:103A3000F7B582B014460298019006202049C8715B
:103A4000062802D0072804D101E0042503E0082558
:103A500001E0042500BF00BF00272BE06846807905
:103A6000174988716846407948716846007908713D
:103A7000E078C872A07888726078487220780872FE
:103A8000082D07D1E079C873A079887360794873ED
:103A900020790873019840190190641972B6FEF7F5
:103AA000E5FC064662B6012E02D0002005B0F0BD4E
:103AB000781987B203988742D0D30120F6E7000037
:103AC0000000024010B5124C03202061606111A07B
:103AD000A0611349E1610121890221620021A162F3
:103AE0006162E1620BA020660E4961661021A16649
:103AF00000212167E16661670BA1E01DFCF788FCEE
:103B00000AA12046FCF784FC2020A07110BD000013
:103B10002C0500205465726D696E616C0000000018
:103B2000D4050020D409002052545400534547477F
:103B30004552000010B501460A69CB689A4204D884
:103B40008C68641EE41AA01801E0D41A601E10BD2F
:103B5000FFB585B006460F460F9D0E9C002F01DA7B
:103B6000784200E0384603900120049007E007996E
:103B70000398FCF7DEFC03900498401C049007991E
:103B800003988842F3DA04990898884201D9089882
:103B90000490002C06D0002F03DB042028400428CA
:103BA00000D1641E02202840002802D00898002876
:103BB00015D0E807C00F002811D1002C0FD008E065
:103BC000641E2021304600F0D9F8F068002800DAA1
:103BD00004E0002C02D00498A042F1D300BFF068AA
:103BE00000283ADB002F05DA7F422D21304600F015
:103BF000C5F807E004202840042803D12B213046D3
:103C000000F0BCF8F068002827DB022028400228DA
:103C100018D1E807C00F002814D10898002811D146
:103C2000002C0FD008E0641E3021304600F0A6F8CA
:103C3000F068002800DA04E0002C02D00498A042CA
:103C4000F1D300BFF068002807DB019500943946E6
:103C50003046089B079A00F003F809B0F0BD000059
:103C6000FFB585B0064617461D460E9C0698029085
:103C700001200390019007E039460298FCF74FFCC1
:103C800002900198401C01900298B842F4D2019829
:103C9000854200D901950F98C007C00F00281DD19B
:103CA000002C1BD002210F980840022804D1002DBF
:103CB00002D13020009001E02020009008E0641E36
:103CC0003046009900F05AF8F068002800DA04E065
:103CD000002C02D00198A042F1D300BFF068002868
:103CE00048DB0FE0012D01D96D1E08E0039906980D
:103CF000FCF715FC04900498B84200D203E0039846
:103D000078430390EEE700BF00BF03990698FCF7E5
:103D100006FC04900399049848430699081A0690F3
:103D2000154A0498115C304600F028F8F068002825
:103D300000DA07E039460398FCF7F1FB039003989B
:103D40000028E2D100BF0F98C007C00F002811D093
:103D5000002C0FD008E0641E2021304600F00EF841
:103D6000F068002800DA04E0002C02D00198A0429C
:103D7000F1D300BF09B0F0BDE45E000070B50446A9
:103D80000E46A568681C6168814206D320684655C6
:103D9000681CA060E068401CE0606168A068884220
:103DA0000DD1A26821682069FFF798F9A1688842BF
:103DB00003D00020C043E06001E00020A06070BD9F
:103DC000F7B582B00446174600200190E56800BFB1
:103DD000206900900098A84203D90098401B461E15
:103DE00004E0A1680098281A401C0E1AA068401B25
:103DF000B04201D9304601E0A068401B0646BE42F1
:103E000001D2304600E0384606466168481932461D
:103E10000399FCF723FB01988019019003988019FE
:103E20000390BF1BAD19A068A84200D10025E56032
:103E3000002FCDD1019805B0F0BDF7B582B0044692
:103E40001546E668A068871BAF4208D961688819E3
:103E50002A460399FCF702FB7019E06010E0019715
:103E600061688819019A0399FCF7F8FAE81B019038
:103E7000039AD1196068019AFCF7F0FA0198E060A2
:103E800005B0F0BDF8B5040C8BB2264682B25E4395
:103E9000104658430D0C370C360400218019164685
:103EA00079416E43370C36048019264679416E43BA
:103EB0008919F8BD30B47446641E2578641CAB4281
:103EC00004D3635D5B00E31830BC18471D46F8E778
:103ED0004900CA020243100000D004204A0D01D05C
:103EE00001221043044A490D914201D102210843A5
:103EF000012800D105207047FF07000000BF0548DA
:103F00000068802108408028F9D10248006980B209
:103F10007047000000B003401748806B012149033F
:103F20000843154988630020144988601449886053
:103F30001148C06B0121C90608430F49C8635C20C2
:103F4000104988600020C8600846006840094001A8
:103F5000086008460068022108430A4908600846CC
:103F6000006840210843074908600846006A40216C
:103F700008430449086270470080044040D0044070
:103F800000B0044000B00340002806D0064949793B
:103F900020221143044A517105E003494979202246
:103FA0009143014A517170470040064008B52020F6
:103FB0000D49087008464078C008C000487008469F
:103FC000407802210843084948700846407800902C
:103FD0000098401C009005480069042108430349EB
:103FE000086130BF08BD000000E0074000ED00E0C0
:103FF000F0B585B0044600200490002C3CD16B49FC
:10400000886C6B4901F0B8FD02D26A496748816447
:104010006649886C002101F02DFD1AD26348806C3E
:104020000121C90748406449019001F04DFD074650
:10403000FCF754FE05460022604BFCF7D7FC0391C9
:104040000290FCF703FD80B20121C90308430490EC
:1040500012E05649886C584901F036FD0746FCF7D6
:104060003DFE0022554B03910290FCF7BFFC054634
:10407000FCF7ECFC80B20490012C3CD14B49C86C9D
:104080004B4901F079FD02D24A494848C164474989
:10409000C86C002101F0EEFC1AD24448C06C01212A
:1040A000C90748400746444901F00EFD0190FCF75E
:1040B00015FE05460022414BFCF798FC0391029047
:1040C000FCF7C4FC80B20121C9030843049012E04C
:1040D0003649C86C384901F0F7FC0746FCF7FEFD8D
:1040E0000022364B03910290FCF780FC0546FCF75A
:1040F000ADFC80B20490022C31D12C49486D0021D6
:1041000001F0B8FC18D22948406DA10748402A495F
:10411000019001F0D9FC0746FCF7E0FD05460022BE
:10412000264BFCF763FC03910290FCF78FFC80B2F6
:10413000A1030843049012E01C49486D1E4901F098
:10414000C3FC0746FCF7CAFD00221C4B03910290FA
:10415000FCF74CFC0546FCF779FC80B20490032C7C
:1041600002D11748C08E0490052C02D115488089D1
:1041700004900C2C02D11348808804900D2C02D19D
:104180001048408804900E2C02D10E48C08804903C
:104190000F2C02D10B4800890490102C02D1094841
:1041A00040890490049805B0F0BD000050FAFF1F4C
:1041B00000001B44008022440000C8420000E03F91
:1041C00050FBFF1FB0F8FF1FF0B585B0044600207C
:1041D0000490002C3CD18549886C854901F0CCFCC9
:1041E00002D28449814881648049886C002101F0B1
:1041F00041FC1AD27D48806C0121C90748407E49A4
:10420000019001F061FC0746FCF768FD05460022BD
:104210007A4BFCF7EBFB03910290FCF717FC80B2A2
:104220000121C9030843049012E07049886C724967
:1042300001F04AFC0746FCF751FD00226F4B039149
:104240000290FCF7D3FB0546FCF700FC80B204901B
:10425000012C3CD16549C86C654901F08DFC02D246
:1042600064496248C1646149C86C002101F002FCE4
:104270001AD25E48C06C0121C907484007465E4912
:1042800001F022FC0190FCF729FD00225B4B039119
:104290000290FCF7ABFB0546FCF7D8FB80B201218E
:1042A000C9030843049012E05049C86C524901F018
:1042B0000BFC0746FCF712FD0022504B03910290C5
:1042C000FCF794FB0546FCF7C1FB80B20490022C7E
:1042D00031D14649086D002101F0CCFB18D243488A
:1042E000006DA10748404449019001F0EDFB0746ED
:1042F000FCF7F4FC05460022404BFCF777FB0391EA
:104300000290FCF7A3FB80B2A1030843049012E0E3
:104310003649086D384901F0D7FB0746FCF7DEFC4B
:104320000022364B03910290FCF760FB0546FCF738
:104330008DFB80B20490032C32D12C49486D0021B2
:1043400001F098FB19D22948406DE10748402A49FD
:10435000019001F0B9FB0746FCF7C0FC05460022BE
:10436000264BFCF743FB03910290FCF76FFB80B2F6
:104370000121C9030843049012E01C49486D1E49FD
:1043800001F0A2FB0746FCF7A9FC00221B4B03919E
:104390000290FCF72BFB0546FCF758FB80B204901B
:1043A000042C02D11648C08E0490052C02D1154869
:1043B000808904900C2C02D11248808804900D2C26
:1043C00002D11048408804900E2C02D10D48C088BC
:1043D00004900F2C02D10B4800890490102C02D1BC
:1043E000084840890490049805B0F0BD50FAFF1FBA
:1043F00000001B44008022440000C8420000E03F4F
:1044000050FBFF1FB0F8FF1F00B5174840780300AE
:10441000FFF750FD0F090B0D0F11131517191B1D79
:104420001F2123252700082000BD0820FCE70820C5
:10443000FAE70820F8E70920F6E70920F4E70B205F
:10444000F2E70B20F0E70B20EEE70B20ECE70B2068
:10445000EAE70B20E8E70B20E6E70920E4E709207C
:10446000E2E70020E0E70000CC0400200B480078E1
:104470000B4A127890420ADA0A48084A1278815C9C
:1044800006480078401C054A107008467047002016
:10449000034A1070014A107000BFF7E728FCFF1FA5
:1044A0002AFCFF1F2C0400200B4800780B4A1278CE
:1044B00090420ADA0A48084A1278815C0648007875
:1044C000401C054A1070084670470020034A1070CF
:1044D000014A107000BFF7E729FCFF1F2BFCFF1FEC
:1044E0004C0400200748007807490978884201DA1F
:1044F000012070470020044908700249087000BF7D
:10450000F7E7000028FCFF1F2AFCFF1F0748007880
:1045100007490978884201DA0120704700200449E0
:1045200008700249087000BFF7E7000029FCFF1F70
:104530002BFCFF1F10B503461A46002001218907F6
:1045400000E089089142FCD808E04418944203D85E
:104550004418121B4C002018400889080029F4D187
:1045600010BD0000F0B514480078042801DA0020DE
:10457000F0BDFFF749FF0446002C00D1F8E70E48D4
:104580000078A04201DA0020F2E7201FC1B20B48F8
:10459000FDF762FD05462E12EFB2E01E0749491EE7
:1045A000085CB04205D1A01E085CB84201D10220CF
:1045B000DEE70120DCE7000031FCFF1FCD04002016
:1045C00000B52D480078012805DB2C4800787E28AE
:1045D00001D0002000BD2848007802283DDB274894
:1045E0004078002839D025484078012835D0234824
:1045F0004078022831D02148407803282DD01F4828
:104600004078042829D01D484078052825D01B482B
:104610004078062821D01948407807281DD017482F
:104620004078082819D015484078092815D0134833
:1046300040780A2811D0114840780B280DD00F4837
:1046400040780C2809D00D4840780D2805D00B483B
:1046500040780E2801D00020BCE7074800780428E5
:1046600007DBFFF7D1FE0146102901DD0020B1E78D
:1046700000BF0120AEE7000031FCFF1FCC0400208A
:10468000F7B582B0054600200190039C04980A28E3
:1046900004D000202070039805B0F0BD002D06D195
:1046A00030202070641C002020700398F4E7002D57
:1046B00003DA2D202070641C6D42104E17E0314645
:1046C0002846FBF736FF0746002F02D10198002845
:1046D00008D0384630302070641C384670432D1A9C
:1046E000012001900A213046FBF723FF0646002EE9
:1046F000E5DC002020700398CEE7000010270000C2
:104700000C480078012801DA00207047012106E0FA
:104710000948425C481E084B1A54481CC1B205485F
:1047200000788142F4DB03480078401E014A107093
:104730000120EAE731FCFF1FCC04002010B50E4A2F
:1047400002213F208002FEF76DFB0B4800880B49D9
:10475000884208D008460849088000F0A9FDFF21DA
:104760000748418610BD044AFF2122313F208002C4
:10477000FEF758FB00BFF5E7B0F8FF1FAA450000A1
:1047800050FBFF1F08B5DFA10020FEF70DFD002440
:10479000002500260021DD4841862A20DC490870DA
:1047A000FEF720FEDB48806B1F2149020843D949F0
:1047B000886362B6FDF782FE0120FEF707F8FDF779
:1047C0009FFCFDF72BFCFEF797FF0120082300223A
:1047D00011460090072000F091FE012008230022DE
:1047E000114600904B20C00100F066FFFEF728FB49
:1047F000C9480021C94A03C20020C94A106050605C
:10480000C84A11605160C84A116051600120FDF72B
:10481000F3FB0120FDF744FE00BF0120FDF7F2FF8E
:104820000028FAD000BF0520FEF7AAF80028FAD029
:1048300000BF0020FEF7F6F80028FAD000BF0020E5
:10484000FEF70AF80028FAD000BF1420FEF714F98A
:104850000028FAD049E0B5480078401CB3490870F8
:1048600008460278B2A10020FEF79EFCAF4800780F
:1048700003283ADB0020AD490870FDF7BDFB00209E
:10488000FDF70EFE0120C004AD498860FDF756FC1F
:10489000C82000F001FE0C20FEF792F90021084626
:1048A00000F0E2FE9B48406B012189028843994950
:1048B0004863FDF763FFA3480468E120C0002618A1
:1048C0000221304600F0A8FCFDF75CFD9EA100200F
:1048D000FEF76AFC00BFBFF34F8FA048A049C86035
:1048E000BFF34F8F00BF00BFFEE7FEF773F800284D
:1048F000B1D09CA10020FEF757FC0020FDF766FF19
:10490000FDF702FCFDE060219A48FBF704FE6D1CF8
:104910000A2D06D998A10020FEF746FC002500F0DC
:10492000C7FC01200823002211460090072000F058
:10493000E5FDFDF753FAFDF70FFF1F20FEF74AF9DB
:104940001220FEF747F98F480068082108438D4977
:1049500008607D20C00000F09FFD7D20400100F038
:104960009BFD8948FEF7C6FAFDF712FCFDF73EFBFA
:104970001F20FEF725F91220FEF722F98148006872
:10498000804908600120C0046D498860012000F062
:1049900083FD0120C0046A494860012000F07CFDCD
:1049A000642000F079FD7948407C01282BD07748BD
:1049B000407C002827D17548007C002805D10C22B6
:1049C00000210220FEF784F808E07048007C0128EE
:1049D00004D10E2200210220FEF77AF808E06C488C
:1049E0000068401C6A4908607D20C00000F054FD4A
:1049F000642268A167A0FEF78BF8002803D1644801
:104A000000680828EBD37D20C00000F045FD0020A1
:104A10005F4908600120C004494988600120FDF712
:104A2000E3FE0C20FEF7CCF80021084600F01CFE47
:104A30003848406B01218902884336494863FDF7B5
:104A40009DFE642000F028FD0020FDF7CDFE3D48CE
:104A50000068514908604D484038828E4FA10020BF
:104A6000FEF7A2FB5548FF2101310958FF30013004
:104A70004268494800680023401A934112D24348D3
:104A8000016845480068081A4D4908604D48808E05
:104A90003C22504301464A480068FBF740FD4A4823
:104AA000016016E0394801683B480068401A4449F3
:104AB00008604448808E3C225043014640480068CC
:104AC000FBF72DFD3F48808E3C225043401A3E4963
:104AD00008603D480068002802D101203A4908607A
:104AE0000020FDF789FA174804683748006826183F
:104AF0000221304600F090FBFDF744FC0120FDF759
:104B00007BFA00E753746172740D0A0050FBFF1FBB
:104B100000E0074000800440E0B6B50008F8FF1F41
:104B200020F8FF1F30F8FF1F28F8FF1F80F8FF1F35
:104B30004744436F6E6E656374313A25640D0A0015
:104B400000F10F4000D003404E5649435F53797344
:104B500074656D52657365740D0A00000400FA05F2
:104B600000ED00E05061737320415420434D440D2B
:104B70000A000000C8FFFF1F5361766520636F6E57
:104B8000660D0A00009003405CFCFF1FB0F9FF1F98
:104B900018FCFF1F4F4B0000FCFBFF1F636F6E668E
:104BA00069672E776F726B6379636C656D696E757B
:104BB0007465733A25640D0A00000000B0F8FF1F09
:104BC000F4FBFF1F70F9FF1FF8FBFF1FF8B5074646
:104BD000314880790C2108408008022811D12E48E4
:104BE00080791021084000280BD12B4880792021A2
:104BF0000840002805D028484078022108400028B5
:104C000001D00720F8BD002408E023488079402126
:104C10000840002800D005E0601C04B27D2000019F
:104C20008442F2DB00BF1C48807940210840002804
:104C300001D14420E6E718480079C006C00E451CA3
:104C400015484079C006C00E06461836124800784E
:104C5000C021884310490870002409E00E4880797B
:104C60000C2108408008032800D105E0601C04B234
:104C70007D2000018442F1DB00BF074880790C21D0
:104C800008408008032801D01B20BBE7294638468E
:104C9000FBF74FFC7043B5E7004006400B48C06B84
:104CA0000121C90508430949C86309480068022170
:104CB0008843074908604B20000106490860084600
:104CC00080680121084303498860704700800440E0
:104CD000007003400071034010B51F484078030086
:104CE000FFF7E8F80F090C0F1215181B211E2724D7
:104CF0002D2A3330360000F025F92AE000F064FB5D
:104D000027E000F02BF824E000F0E2FA21E000F0C8
:104D100005FA1EE000F094FB1BE000F08BF918E0B0
:104D200000F052F815E000F0E7FA12E000F040F968
:104D30000FE000F05DFB0CE000F0C2F809E000F0CD
:104D40001BFB06E000F082F803E000F0FDFA00E053
:104D500000BF00BF10BD00000C05002010B57E2074
:104D60001649087002204870012088700020C87021
:104D70001348407C087108468078C01C0A46D278E7
:104D800012028018C1B20D48401CFDF781F904469B
:104D90000A494C71201288717E20C87108468078BB
:104DA000C01DC978090240180649087008460178F4
:104DB000024800F025FD012010BD00008C040020F9
:104DC000B0F9FF1F2DFCFF1F38B51D48406900904A
:104DD0007E201C490870082048700420887000203C
:104DE000C8700098087100980004000E487100987F
:104DF0000002000E88710098000EC8710846807885
:104E0000C01C0A46D27812028018C1B20D48401C5C
:104E1000FDF73EF904460B490C72201248727E20C1
:104E2000887208468078C01DC97809024018064972
:104E3000087008460178034800F0E2FC012038BD04
:104E4000B0F9FF1F8C0400202DFCFF1F10B57E2041
:104E5000184908700E204870022088700020C87021
:104E60001548007908711448808800124871084676
:104E70008078C01C0A46D27812028018C1B20D4850
:104E8000401CFDF705F904460A498C712012C871CF
:104E90007E20087208468078C01DC9780902401833
:104EA0000649087008460178024800F0A9FC012074
:104EB00010BD00008C040020B0F8FF1F2DFCFF1F68
:104EC00038B51D48C06900907E201C4908700C2030
:104ED0004870042088700020C870009808710098FD
:104EE0000004000E487100980002000E88710098BE
:104EF000000EC87108468078C01C0A46D27812029B
:104F00008018C1B20D48401CFDF7C2F804460B4999
:104F10000C72201248727E20887208468078C01D6C
:104F2000C978090240180649087008460178034804
:104F300000F066FC012038BDB0F9FF1F8C04002092
:104F40002DFCFF1F10B57E20164908700020487008
:104F5000012088700020C8701348007C0871084642
:104F60008078C01C0A46D27812028018C1B20D485F
:104F7000401CFDF78DF804460A494C7120128871D7
:104F80007E20C87108468078C01DC9780902401883
:104F90000649087008460178024800F031FC0120FB
:104FA00010BD00008C040020B0F9FF1F2DFCFF1F76
:104FB00038B51D48806900907E201C4908700A2081
:104FC0004870042088700020C8700098087100980C
:104FD0000004000E487100980002000E88710098CD
:104FE000000EC87108468078C01C0A46D2781202AA
:104FF0008018C1B20D48401CFDF74AF804460B4921
:105000000C72201248727E20887208468078C01D7B
:10501000C978090240180649087008460178034813
:1050200000F0EEFB012038BDB0F9FF1F8C0400201A
:105030002DFCFF1F1FB53648806C03903448C06CB0
:1050400002903348006D01903148406D00907E2001
:105050003049087006204870102088700020C87001
:105060000398087103980004000E48710398000229
:10507000000E88710398000EC87102980872029899
:105080000004000E487202980002000E8872029816
:10509000000EC8720198087301980004000E48734E
:1050A00001980002000E88730198000EC8730098E2
:1050B000087400980004000E487400980002000E66
:1050C00088740098000EC87408468078C01C0A4690
:1050D000D27812028018C1B20E48401CFCF7D8FFEB
:1050E00004460C490C75201248757E2088750846C8
:1050F0008078C01DC9780902401807490870084621
:105100000178044800F07CFB012004B010BD0000D1
:1051100050FAFF1F8C0400202DFCFF1F10B57E20CD
:105120001849087004204870022088700020C87058
:105130001548808E08711448808E00124871084608
:105140008078C01C0A46D27812028018C1B20D487D
:10515000401CFCF79DFF04460A498C712012C8715F
:105160007E20087208468078C01DC9780902401860
:105170000649087008460178024800F041FB01200A
:1051800010BD00008C04002070F9FF1F2DFCFF1FD4
:1051900001461D4A926B0123DB021A431A4B9A63A4
:1051A0009A151A4B5A60184AD26B01235B071A43AF
:1051B000154BDA630122D204154B1A600122154BFC
:1051C0001A611A461269520852001A611A46526947
:1051D000D207D20F002A01D000221A600D4A52696C
:1051E00010231A40002A04D00A4A52699A43094BF4
:1051F0005A61084A1160002000E0401C0322520559
:105200009042FADB704700000080044000B0044088
:105210000070044000D0034070B505460C46E0071E
:10522000C00F00280CD02148C069102108431F4935
:10523000C8611520FDF7CEFC03211520FDF7DEFC2B
:105240000220204000280DD018488560C069042144
:1052500008431649C8611420FDF7BCFC0321142043
:10526000FDF7CCFC0420204000280CD00F48C0697A
:10527000022108430D49C8611420FDF7ABFC03214E
:105280001420FDF7BBFC0820204000280CD0074864
:10529000C069012108430549C8611420FDF79AFC43
:1052A00003211420FDF7AAFC70BD000000D00340CC
:1052B00010B53F208002FDF7C1F8044AFF212131DB
:1052C0003F208002FEF7B4FB10BD0000B0F8FF1FC6
:1052D00010B506480178064800F092FA04480179B2
:1052E00004484174FFF7E4FF012010BD33FCFF1FA9
:1052F0000C050020B0F9FF1F08B5104801781048D0
:1053000000F07EFA0E48007900900D4949790902B3
:105310000098401800900A498979090400984018BB
:1053200000900749C979090600984018009005487F
:1053300000994161FFF7BCFF012008BD33FCFF1F4E
:105340000C050020B0F9FF1F10B508480178084887
:1053500000F056FA064800790549497909024018D3
:1053600004498880FFF7A4FF012010BD33FCFF1F14
:105370000C050020B0F8FF1F08B510480178104850
:1053800000F03EFA0E48007900900D494979090273
:105390000098401800900A4989790904009840183B
:1053A00000900749C97909060098401800900548FF
:1053B0000099C161FFF77CFF012008BD33FCFF1F8E
:1053C0000C050020B0F9FF1F10B50648017806480B
:1053D00000F016FA0448017904480174FFF768FFE9
:1053E000012010BD33FCFF1F0C050020B0F9FF1F8A
:1053F00008B510480178104800F002FA0E4800790C
:1054000000900D49497909020098401800900A4916
:10541000897909040098401800900749C97909065C
:10542000009840180090054800998161FFF740FFFF
:10543000012008BD33FCFF1F0C050020B0F9FF1F41
:1054400010B509480178094800F0DAF907480079F1
:10545000064949790902401881B205488186FFF75B
:1054600027FF012010BD000033FCFF1F0C050020AA
:1054700070F9FF1F10B5FCF7D1FFFEF7F7FF0446E8
:1054800000F0E6F810BD10B5FCF7D0FFFFF70CF800
:10549000044600F07FF910BD1049896B01221143C9
:1054A0000E4A916300210E4A116011468860052161
:1054B00051601146096801221143094A116000BF79
:1054C00007490968802211400029F9D00449096878
:1054D00049084900024A11607047000000800440FA
:1054E00000000440044900BF087920221040002831
:1054F000FAD0C8797047000000A00640FFB581B01F
:1055000005460E4617464E4C002000902B00FEF735
:10551000D1FC0805080B0E1114171A1D4B252D017F
:1055200015E04B256D0112E04B25AD010FE04B2539
:10553000ED010CE04B252D0209E04B256D0206E044
:10554000E1252D0203E0E1256D0200E000BF00BF70
:105550003C4840680121090408433A49486008462C
:105560004068012189060843364948600846406B77
:1055700009150843334948630021084600F074F8D0
:105580000020A072012040022F4948608860A07866
:1055900013218843A070A07A20218843A072049828
:1055A0000A2809D1A078710039430843A070A07A75
:1055B00020210843A07208E0049808380001710017
:1055C00008433843A1780843A07029011F480068A8
:1055D000FAF7A5FF80B200901F2109020098084049
:1055E000001220700098607020782021884320707D
:1055F00021780A98401E400101432170E078F02193
:105600008843E07000BF207920210840002802D0A4
:10561000E0790028F7D10121084600F025F8E0786C
:1056200040210843E070E07820210843E0700C201E
:10563000FDF7DAFA03210C20FDF71CFB05B0F0BDE5
:1056400000A00640008004400090044024FCFF1F9E
:10565000044900BF0A7980231A40002AFAD0C87191
:105660007047000000A0064010B502460548C37808
:105670000C24A343C370D3008C002343C47823437A
:10568000C37010BD00A00640044900BF0A79802302
:105690001A40002AFAD0C8717047000000B00640D6
:1056A000044900BF0879202210400028FAD0C879A8
:1056B0007047000000C00640FFB581B005460E46A9
:1056C0001746304C002000902F48406B0121090301
:1056D00008432D4948630021084600F067F803207D
:1056E00000022A4948610861A07813218843A0700C
:1056F000049808380001710008433843A178084332
:10570000A070290122480068FAF709FF80B20090D2
:105710001F21090200980840001220700098607054
:10572000207820218843207021780A98401E40016B
:1057300001432170E078F0218843E07000BF2079B8
:1057400020210840002802D0E0790028F7D10D4838
:105750000078402108430B4908700121084600F0F9
:1057600025F8E07840210843E070E07820210843E4
:10577000E0700E20FDF738FA02210E20FDF77AFACC
:1057800005B0F0BD00C006400080044000C00440E9
:1057900024FCFF1F044900BF0A7980231A40002A15
:1057A000FAD0C8717047000000C0064010B502462C
:1057B0000548C3780C24A343C370D3008C00234353
:1057C000C4782343C37010BD00C0064070B50646C0
:1057D0000D46002400BF03E0305D06490855641CF7
:1057E000AC42F9D300200449087004490D70FFF75A
:1057F00041FE70BD2C04002028FCFF1F2AFCFF1F67
:1058000070B506460D46002400BF03E0305D064932
:105810000855641CAC42F9D30020044908700449BF
:105820000D70FFF730FE70BD4C04002029FCFF1FF7
:105830002BFCFF1F604880790C210840800800285D
:105840000DD15D48807910210840002807D05A48C2
:10585000807920210840002801D103207047564854
:1058600080790C210840800803280DD152488079A6
:1058700010210840002807D14F4880792021084096
:10588000002801D00820E9E74B4880790C21084026
:105890008008022813D14848807910210840002848
:1058A0000DD14548807920210840002807D0424882
:1058B000407802210840002801D10720CEE73E4869
:1058C00080790C2108408008022813D13A48807959
:1058D0001021084000280DD1374880792021084048
:1058E000002807D13448407802210840002801D11F
:1058F0000520B3E7304880790C2108408008022851
:105900000DD12D48807910210840002807D12A4860
:10591000407802210840002801D006209EE7264852
:1059200080790C2108408008012813D12248807911
:105930001021084000280DD01F4880792021084000
:10594000002807D11C48407802210840002801D0D7
:10595000012083E7184880790C210840800801283D
:1059600013D1154880791021084000280DD0124825
:10597000807920210840002807D10F484078022173
:105980000840002801D1022068E70B4880790C21EB
:105990000840800800280DD1074880791021084070
:1059A000002807D10448807920210840002801D12F
:1059B000042053E7002051E70040064010B50029BD
:1059C0000AD00878002807D005487844FCF760F929
:1059D000002801D0002010BD0248784410BD00000E
:1059E0001E0600001606000070B501250400ED0734
:1059F0004C4020D4441A01D2001B0919C60D4B009B
:105A0000F2B2FF2A29D01B0E2CD000020C02D31AAE
:105A10002C43DC402843051910D2280A02D3401C2D
:105A20006D0611D0761EF6058019FF2A00DA70BDCA
:105A3000C00DC00570BD694000F0D0F801200543DD
:105A4000C541521C761CE8E764089C40C9016140CE
:105A50008900E7D10124A043E4E71B0E440200D0F3
:105A6000034870BD002AFCD1C00FC00770BD00BF45
:105A70000000C07F01230200DB050A430DD4DA4297
:105A800003D49A4207D488427047D84214D4D942EA
:105A900012D48842704780427047DA4203D59A4256
:105AA000F9D5814270475B004200DA4204D24A00D5
:105AB000DA4201D28142704710B5024AFBF7C0FCBE
:105AC00010BD00BF0900160470B5420064414B00D0
:105AD0005C41120E39D01B0E38D0FF2A3CD0FF2B70
